{
  "contractName": "ItemDaoBasic",
  "abi": [
    {
      "anonymous": false,
      "inputs": [
        {
          "indexed": false,
          "name": "id",
          "type": "uint256"
        },
        {
          "indexed": false,
          "name": "owner",
          "type": "address"
        },
        {
          "indexed": false,
          "name": "version",
          "type": "uint256"
        },
        {
          "indexed": false,
          "name": "title",
          "type": "string"
        },
        {
          "indexed": false,
          "name": "inventory",
          "type": "uint256"
        },
        {
          "indexed": false,
          "name": "active",
          "type": "bool"
        },
        {
          "indexed": false,
          "name": "eventType",
          "type": "string"
        }
      ],
      "name": "ItemEvent",
      "type": "event"
    },
    {
      "constant": true,
      "inputs": [
        {
          "name": "_id",
          "type": "uint256"
        }
      ],
      "name": "read",
      "outputs": [
        {
          "name": "id",
          "type": "uint256"
        },
        {
          "name": "owner",
          "type": "address"
        },
        {
          "name": "version",
          "type": "uint256"
        },
        {
          "name": "title",
          "type": "string"
        },
        {
          "name": "inventory",
          "type": "uint256"
        },
        {
          "name": "active",
          "type": "bool"
        }
      ],
      "payable": false,
      "stateMutability": "view",
      "type": "function"
    },
    {
      "constant": false,
      "inputs": [
        {
          "name": "_version",
          "type": "uint256"
        },
        {
          "name": "_title",
          "type": "string"
        },
        {
          "name": "_inventory",
          "type": "uint256"
        },
        {
          "name": "_active",
          "type": "bool"
        }
      ],
      "name": "create",
      "outputs": [
        {
          "name": "",
          "type": "uint256"
        }
      ],
      "payable": false,
      "stateMutability": "nonpayable",
      "type": "function"
    },
    {
      "constant": false,
      "inputs": [
        {
          "name": "_id",
          "type": "uint256"
        },
        {
          "name": "_version",
          "type": "uint256"
        },
        {
          "name": "_title",
          "type": "string"
        },
        {
          "name": "_inventory",
          "type": "uint256"
        }
      ],
      "name": "update",
      "outputs": [],
      "payable": false,
      "stateMutability": "nonpayable",
      "type": "function"
    },
    {
      "constant": false,
      "inputs": [
        {
          "name": "_id",
          "type": "uint256"
        }
      ],
      "name": "remove",
      "outputs": [],
      "payable": false,
      "stateMutability": "nonpayable",
      "type": "function"
    }
  ],
  "bytecode": "0x608060405234801561001057600080fd5b50610de4806100206000396000f300608060405260043610610062576000357c0100000000000000000000000000000000000000000000000000000000900463ffffffff16806349e665b7146100675780634cc82215146100d6578063b0c8409114610103578063ed2e5a971461015c575b600080fd5b34801561007357600080fd5b506100c06004803603810190808035906020019092919080359060200190820180359060200191909192939192939080359060200190929190803515159060200190929190505050610255565b6040518082815260200191505060405180910390f35b3480156100e257600080fd5b5061010160048036038101908080359060200190929190505050610548565b005b34801561010f57600080fd5b5061015a600480360381019080803590602001909291908035906020019092919080359060200190820180359060200191909192939192939080359060200190929190505050610781565b005b34801561016857600080fd5b5061018760048036038101908080359060200190929190505050610ad1565b604051808781526020018673ffffffffffffffffffffffffffffffffffffffff1673ffffffffffffffffffffffffffffffffffffffff1681526020018581526020018060200184815260200183151515158152602001828103825285818151815260200191508051906020019080838360005b838110156102155780820151818401526020810190506101fa565b50505050905090810190601f1680156102425780820380516001836020036101000a031916815260200191505b5097505050505050505060405180910390f35b600080610260610c44565b60026000815480929190600101919050555060025491506000151561028483610c01565b151514151561029257600080fd5b60c0604051908101604052808381526020013373ffffffffffffffffffffffffffffffffffffffff1681526020016001815260200188888080601f01602080910402602001604051908101604052809392919081815260200183838082843782019150505050505081526020018681526020018515158152509050806000808481526020019081526020016000206000820151816000015560208201518160010160006101000a81548173ffffffffffffffffffffffffffffffffffffffff021916908373ffffffffffffffffffffffffffffffffffffffff160217905550604082015181600201556060820151816003019080519060200190610397929190610c93565b506080820151816004015560a08201518160050160006101000a81548160ff02191690831515021790555090505060018290806001815401808255809150509060018203906000526020600020016000909192909190915055507f79be9fa87fd5a28cefb1a52e33932858a8480aa71312c0f62413dbe1905ac678816000015182602001518360400151846060015185608001518660a00151604051808781526020018673ffffffffffffffffffffffffffffffffffffffff1673ffffffffffffffffffffffffffffffffffffffff168152602001858152602001806020018481526020018315151515815260200180602001838103835286818151815260200191508051906020019080838360005b838110156104c25780820151818401526020810190506104a7565b50505050905090810190601f1680156104ef5780820380516001836020036101000a031916815260200191505b50838103825260038152602001807f4e455700000000000000000000000000000000000000000000000000000000008152506020019850505050505050505060405180910390a180600001519250505095945050505050565b61055181610c01565b151561055c57600080fd5b600080600083815260200190815260200160002060050160006101000a81548160ff0219169083151502179055507f79be9fa87fd5a28cefb1a52e33932858a8480aa71312c0f62413dbe1905ac6786000808381526020019081526020016000206000015460008084815260200190815260200160002060010160009054906101000a900473ffffffffffffffffffffffffffffffffffffffff16600080858152602001908152602001600020600201546000808681526020019081526020016000206003016000808781526020019081526020016000206004015460008088815260200190815260200160002060050160009054906101000a900460ff16604051808781526020018673ffffffffffffffffffffffffffffffffffffffff1673ffffffffffffffffffffffffffffffffffffffff1681526020018581526020018060200184815260200183151515158152602001806020018381038352868181546001816001161561010002031660029004815260200191508054600181600116156101000203166002900480156107365780601f1061070b57610100808354040283529160200191610736565b820191906000526020600020905b81548152906001019060200180831161071957829003601f168201915b5050838103825260068152602001807f52454d4f564500000000000000000000000000000000000000000000000000008152506020019850505050505050505060405180910390a150565b61078a85610c01565b151561079557600080fd5b83600080878152602001908152602001600020600201541415156107ce5783600080878152602001908152602001600020600201819055505b828260405180838380828437820191505092505050604051809103902060001916600080878152602001908152602001600020600301604051808280546001816001161561010002031660029004801561085f5780601f1061083d57610100808354040283529182019161085f565b820191906000526020600020905b81548152906001019060200180831161084b575b505091505060405180910390206000191614151561089d578282600080888152602001908152602001600020600301919061089b929190610d13565b505b80600080878152602001908152602001600020600401541415156108d65780600080878152602001908152602001600020600401819055505b7f79be9fa87fd5a28cefb1a52e33932858a8480aa71312c0f62413dbe1905ac6786000808781526020019081526020016000206000015460008088815260200190815260200160002060010160009054906101000a900473ffffffffffffffffffffffffffffffffffffffff16600080898152602001908152602001600020600201546000808a81526020019081526020016000206003016000808b8152602001908152602001600020600401546000808c815260200190815260200160002060050160009054906101000a900460ff16604051808781526020018673ffffffffffffffffffffffffffffffffffffffff1673ffffffffffffffffffffffffffffffffffffffff168152602001858152602001806020018481526020018315151515815260200180602001838103835286818154600181600116156101000203166002900481526020019150805460018160011615610100020316600290048015610a825780601f10610a5757610100808354040283529160200191610a82565b820191906000526020600020905b815481529060010190602001808311610a6557829003601f168201915b5050838103825260068152602001807f55504441544500000000000000000000000000000000000000000000000000008152506020019850505050505050505060405180910390a15050505050565b600080600060606000806000610ae688610c01565b1515610af157600080fd5b600080898152602001908152602001600020905080600001548160010160009054906101000a900473ffffffffffffffffffffffffffffffffffffffff1682600201548360030184600401548560050160009054906101000a900460ff16828054600181600116156101000203166002900480601f016020809104026020016040519081016040528092919081815260200182805460018160011615610100020316600290048015610be45780601f10610bb957610100808354040283529160200191610be4565b820191906000526020600020905b815481529060010190602001808311610bc757829003601f168201915b505050505092509650965096509650965096505091939550919395565b6000806001805490501415610c195760009050610c3f565b60008083815260200190815260200160002060050160009054906101000a900460ff1690505b919050565b60c06040519081016040528060008152602001600073ffffffffffffffffffffffffffffffffffffffff1681526020016000815260200160608152602001600081526020016000151581525090565b828054600181600116156101000203166002900490600052602060002090601f016020900481019282601f10610cd457805160ff1916838001178555610d02565b82800160010185558215610d02579182015b82811115610d01578251825591602001919060010190610ce6565b5b509050610d0f9190610d93565b5090565b828054600181600116156101000203166002900490600052602060002090601f016020900481019282601f10610d5457803560ff1916838001178555610d82565b82800160010185558215610d82579182015b82811115610d81578235825591602001919060010190610d66565b5b509050610d8f9190610d93565b5090565b610db591905b80821115610db1576000816000905550600101610d99565b5090565b905600a165627a7a723058208ffdd647258c9d7dddd552a7e06c07f6e5ddbfd772218b984768c5513c4cc93d0029",
  "source": "pragma solidity ^0.4.24;\n\n\ninterface ItemDao {\n\n    function create(uint _version, string _title, uint _inventory, bool _active) external returns (uint256);\n    function read(uint256 _id) external view returns (uint256 id, address owner, uint version, string title, uint inventory, bool active);\n    function update(uint256 _id, uint _version, string _title, uint _inventory) external;\n    function remove(uint256 _id) external;\n}\n\n\ncontract ItemDaoBasic is ItemDao {\n\n    struct Item {\n        uint256 id;\n        address owner;\n        uint version;\n        string title;\n        uint inventory;\n        bool active;\n    }\n\n\n    event ItemEvent (\n        uint256 id,\n        address owner,\n        uint version,\n        string title,\n        uint inventory,\n        bool active,\n        string eventType\n    );\n\n\n    mapping(uint256 => Item) private itemMapping;\n    uint256[] private itemIndex;\n    uint256 itemCounter;\n\n    function read(uint256 _id) external view returns (uint256 id, address owner, uint version, string title, uint inventory, bool active) {\n\n        require(exists(_id));\n\n        Item storage item = itemMapping[_id];\n\n        return (item.id, item.owner, item.version, item.title, item.inventory, item.active);\n    }\n\n    function create(uint _version, string _title, uint _inventory, bool _active) external returns (uint256) {\n\n        itemCounter++;\n\n        uint256 id = itemCounter;\n\n        require(exists(id) == false);\n        //make sure it doesn't exist. Might need refactored so that I can write tests to verify this condition\n\n        Item memory item = Item({\n            id : id,\n            owner : msg.sender,\n            version : 1,\n            title : _title,\n            inventory : _inventory,\n            active : _active\n            });\n\n\n        //Put item in mapping\n        itemMapping[id] = item;\n\n\n        //Put id in index\n        itemIndex.push(id);\n\n\n        emit ItemEvent(\n            item.id,\n            item.owner,\n            item.version,\n            item.title,\n            item.inventory,\n            item.active,\n            \"NEW\"\n        );\n\n\n        return item.id;\n    }\n\n    function update(uint256 _id, uint _version, string _title, uint _inventory) external {\n\n        require(exists(_id));\n\n\n        if (itemMapping[_id].version != _version) {\n            itemMapping[_id].version = _version;\n        }\n\n        if (keccak256(bytes(itemMapping[_id].title)) != keccak256(bytes(_title))) {\n            itemMapping[_id].title = _title;\n        }\n\n        if (itemMapping[_id].inventory != _inventory) {\n            itemMapping[_id].inventory = _inventory;\n        }\n\n        emit ItemEvent(\n            itemMapping[_id].id,\n            itemMapping[_id].owner,\n            itemMapping[_id].version,\n            itemMapping[_id].title,\n            itemMapping[_id].inventory,\n            itemMapping[_id].active,\n            \"UPDATE\"\n        );\n\n    }\n\n    function remove(uint256 _id) external {\n\n        require(exists(_id));\n\n        itemMapping[_id].active = false;\n\n        emit ItemEvent(\n            itemMapping[_id].id,\n            itemMapping[_id].owner,\n            itemMapping[_id].version,\n            itemMapping[_id].title,\n            itemMapping[_id].inventory,\n            itemMapping[_id].active,\n            \"REMOVE\"\n        );\n\n    }\n\n    function exists(uint256 _id) private view returns (bool) {\n        if (itemIndex.length == 0) return false;\n\n        return itemMapping[_id].active;\n        //should return false if it doesn't exist\n    }\n\n\n}\n\n\n\n\n//\n//\n//\n//library DaoUtils {\n//    function generateId(uint256[] existingIds) internal view returns (uint256){\n//        return existingIds.length + 1;\n//    }\n//}\n//\n//\n////For unit test\n//contract DaoUtilsProxy {\n//    function generateId(uint256[] existingIds) external view returns (uint256){\n//        return DaoUtils.generateId(existingIds);\n//    }\n//}\n\n\n\n\n",
  "sourcePath": "/home/ptoner/repos/solidity-vending-machine/contracts/Data.sol",
  "compiler": {
    "name": "solc",
    "version": "0.4.24+commit.e67f0147.Emscripten.clang"
  },
  "schemaVersion": "2.0.1",
  "updatedAt": "2018-09-24T18:06:44.471Z"
}