{
  "contractName": "ItemDaoBasic",
  "abi": [
    {
      "anonymous": false,
      "inputs": [
        {
          "indexed": false,
          "name": "id",
          "type": "uint256"
        },
        {
          "indexed": false,
          "name": "owner",
          "type": "address"
        },
        {
          "indexed": false,
          "name": "version",
          "type": "uint256"
        },
        {
          "indexed": false,
          "name": "title",
          "type": "string"
        },
        {
          "indexed": false,
          "name": "inventory",
          "type": "uint256"
        },
        {
          "indexed": false,
          "name": "index",
          "type": "uint256"
        },
        {
          "indexed": false,
          "name": "eventType",
          "type": "string"
        }
      ],
      "name": "ItemEvent",
      "type": "event"
    },
    {
      "constant": true,
      "inputs": [
        {
          "name": "_id",
          "type": "uint256"
        }
      ],
      "name": "read",
      "outputs": [
        {
          "name": "id",
          "type": "uint256"
        },
        {
          "name": "owner",
          "type": "address"
        },
        {
          "name": "version",
          "type": "uint256"
        },
        {
          "name": "title",
          "type": "string"
        },
        {
          "name": "inventory",
          "type": "uint256"
        },
        {
          "name": "index",
          "type": "uint256"
        }
      ],
      "payable": false,
      "stateMutability": "view",
      "type": "function"
    },
    {
      "constant": false,
      "inputs": [
        {
          "name": "_version",
          "type": "uint256"
        },
        {
          "name": "_title",
          "type": "string"
        },
        {
          "name": "_inventory",
          "type": "uint256"
        }
      ],
      "name": "create",
      "outputs": [
        {
          "name": "",
          "type": "uint256"
        }
      ],
      "payable": false,
      "stateMutability": "nonpayable",
      "type": "function"
    },
    {
      "constant": false,
      "inputs": [
        {
          "name": "_id",
          "type": "uint256"
        },
        {
          "name": "_version",
          "type": "uint256"
        },
        {
          "name": "_title",
          "type": "string"
        },
        {
          "name": "_inventory",
          "type": "uint256"
        }
      ],
      "name": "update",
      "outputs": [],
      "payable": false,
      "stateMutability": "nonpayable",
      "type": "function"
    },
    {
      "constant": false,
      "inputs": [
        {
          "name": "_id",
          "type": "uint256"
        }
      ],
      "name": "remove",
      "outputs": [],
      "payable": false,
      "stateMutability": "nonpayable",
      "type": "function"
    }
  ],
  "bytecode": "0x608060405234801561001057600080fd5b50610dfd806100206000396000f300608060405260043610610062576000357c0100000000000000000000000000000000000000000000000000000000900463ffffffff1680634cc8221514610067578063b0c8409114610094578063bfe83547146100ed578063ed2e5a9714610150575b600080fd5b34801561007357600080fd5b5061009260048036038101908080359060200190929190505050610245565b005b3480156100a057600080fd5b506100eb6004803603810190808035906020019092919080359060200190929190803590602001908201803590602001919091929391929390803590602001909291905050506104b6565b005b3480156100f957600080fd5b5061013a60048036038101908080359060200190929190803590602001908201803590602001919091929391929390803590602001909291905050506107f5565b6040518082815260200191505060405180910390f35b34801561015c57600080fd5b5061017b60048036038101908080359060200190929190505050610ad0565b604051808781526020018673ffffffffffffffffffffffffffffffffffffffff1673ffffffffffffffffffffffffffffffffffffffff16815260200185815260200180602001848152602001838152602001828103825285818151815260200191508051906020019080838360005b838110156102055780820151818401526020810190506101ea565b50505050905090810190601f1680156102325780820380516001836020036101000a031916815260200191505b5097505050505050505060405180910390f35b60008061025183610bf3565b151561025c57600080fd5b60008084815260200190815260200160002060050154915060018080805490500381548110151561028957fe5b90600052602060002001549050806001838154811015156102a657fe5b906000526020600020018190555081600080838152602001908152602001600020600501819055507fae2c7ce6e50809ea83a2e0a5661380db843c81d0c5734b0e89a633f6770e75c86000808581526020019081526020016000206000015460008086815260200190815260200160002060010160009054906101000a900473ffffffffffffffffffffffffffffffffffffffff1660008087815260200190815260200160002060020154600080888152602001908152602001600020600301600080898152602001908152602001600020600401546000808a815260200190815260200160002060050154604051808781526020018673ffffffffffffffffffffffffffffffffffffffff1673ffffffffffffffffffffffffffffffffffffffff16815260200185815260200180602001848152602001838152602001806020018381038352868181546001816001161561010002031660029004815260200191508054600181600116156101000203166002900480156104695780601f1061043e57610100808354040283529160200191610469565b820191906000526020600020905b81548152906001019060200180831161044c57829003601f168201915b5050838103825260068152602001807f52454d4f564500000000000000000000000000000000000000000000000000008152506020019850505050505050505060405180910390a1505050565b6104bf85610bf3565b15156104ca57600080fd5b83600080878152602001908152602001600020600201541415156105035783600080878152602001908152602001600020600201819055505b82826040518083838082843782019150509250505060405180910390206000191660008087815260200190815260200160002060030160405180828054600181600116156101000203166002900480156105945780601f10610572576101008083540402835291820191610594565b820191906000526020600020905b815481529060010190602001808311610580575b50509150506040518091039020600019161415156105d257828260008088815260200190815260200160002060030191906105d0929190610c5f565b505b806000808781526020019081526020016000206004015414151561060b5780600080878152602001908152602001600020600401819055505b7fae2c7ce6e50809ea83a2e0a5661380db843c81d0c5734b0e89a633f6770e75c86000808781526020019081526020016000206000015460008088815260200190815260200160002060010160009054906101000a900473ffffffffffffffffffffffffffffffffffffffff16600080898152602001908152602001600020600201546000808a81526020019081526020016000206003016000808b8152602001908152602001600020600401546000808c815260200190815260200160002060050154604051808781526020018673ffffffffffffffffffffffffffffffffffffffff1673ffffffffffffffffffffffffffffffffffffffff16815260200185815260200180602001848152602001838152602001806020018381038352868181546001816001161561010002031660029004815260200191508054600181600116156101000203166002900480156107a65780601f1061077b576101008083540402835291602001916107a6565b820191906000526020600020905b81548152906001019060200180831161078957829003601f168201915b5050838103825260068152602001807f55504441544500000000000000000000000000000000000000000000000000008152506020019850505050505050505060405180910390a15050505050565b600080610800610cdf565b60026000815480929190600101919050555060025491506000151561082483610bf3565b151514151561083257600080fd5b60c0604051908101604052808381526020013373ffffffffffffffffffffffffffffffffffffffff1681526020016001815260200187878080601f01602080910402602001604051908101604052809392919081815260200183838082843782019150505050505081526020018581526020016001805490508152509050806000808481526020019081526020016000206000820151816000015560208201518160010160006101000a81548173ffffffffffffffffffffffffffffffffffffffff021916908373ffffffffffffffffffffffffffffffffffffffff16021790555060408201518160020155606082015181600301908051906020019061093a929190610d2c565b506080820151816004015560a0820151816005015590505060018290806001815401808255809150509060018203906000526020600020016000909192909190915055507fae2c7ce6e50809ea83a2e0a5661380db843c81d0c5734b0e89a633f6770e75c8816000015182602001518360400151846060015185608001518660a00151604051808781526020018673ffffffffffffffffffffffffffffffffffffffff1673ffffffffffffffffffffffffffffffffffffffff1681526020018581526020018060200184815260200183815260200180602001838103835286818151815260200191508051906020019080838360005b83811015610a4b578082015181840152602081019050610a30565b50505050905090810190601f168015610a785780820380516001836020036101000a031916815260200191505b50838103825260038152602001807f4e455700000000000000000000000000000000000000000000000000000000008152506020019850505050505050505060405180910390a1806000015192505050949350505050565b600080600060606000806000610ae588610bf3565b1515610af057600080fd5b600080898152602001908152602001600020905080600001548160010160009054906101000a900473ffffffffffffffffffffffffffffffffffffffff1682600201548360030184600401548560050154828054600181600116156101000203166002900480601f016020809104026020016040519081016040528092919081815260200182805460018160011615610100020316600290048015610bd65780601f10610bab57610100808354040283529160200191610bd6565b820191906000526020600020905b815481529060010190602001808311610bb957829003601f168201915b505050505092509650965096509650965096505091939550919395565b6000806000806001805490501415610c0e5760009250610c58565b600080858152602001908152602001600020600501549150600182815481101515610c3557fe5b9060005260206000200154905080841415610c535760019250610c58565b600092505b5050919050565b828054600181600116156101000203166002900490600052602060002090601f016020900481019282601f10610ca057803560ff1916838001178555610cce565b82800160010185558215610cce579182015b82811115610ccd578235825591602001919060010190610cb2565b5b509050610cdb9190610dac565b5090565b60c06040519081016040528060008152602001600073ffffffffffffffffffffffffffffffffffffffff168152602001600081526020016060815260200160008152602001600081525090565b828054600181600116156101000203166002900490600052602060002090601f016020900481019282601f10610d6d57805160ff1916838001178555610d9b565b82800160010185558215610d9b579182015b82811115610d9a578251825591602001919060010190610d7f565b5b509050610da89190610dac565b5090565b610dce91905b80821115610dca576000816000905550600101610db2565b5090565b905600a165627a7a72305820d9ba0d618bdda6801700d5af331ee40e268b8557f6fcd6758f6897e65be1028b0029",
  "source": "pragma solidity ^0.4.24;\n\n\ninterface ItemDao {\n\n    function create(uint _version, string _title, uint _inventory) external returns (uint256);\n    function read(uint256 _id) external view returns (uint256 id, address owner, uint version, string title, uint inventory, uint256 index);\n    function update(uint256 _id, uint _version, string _title, uint _inventory) external;\n    function remove(uint256 _id) external;\n}\n\n\ncontract ItemDaoBasic is ItemDao {\n\n    struct Item {\n        uint256 id;\n        address owner;\n        uint version;\n        string title;\n        uint inventory;\n        uint256 index;\n    }\n\n\n    event ItemEvent (\n        uint256 id,\n        address owner,\n        uint version,\n        string title,\n        uint inventory,\n        uint256 index,\n        string eventType\n    );\n\n\n    mapping(uint256 => Item) private itemMapping; //ITEMMAPPING IS NOT THE LIST OF ACTIVE THINGS\n    uint256[] private itemIndex;    //ITEMINDEX IS THE LIST OF ACTIVE THINGS\n    uint256 itemCounter;\n\n    function read(uint256 _id) external view returns (uint256 id, address owner, uint version, string title, uint inventory, uint256 index) {\n\n        require(exists(_id));\n\n        Item storage item = itemMapping[_id];\n\n        return (item.id, item.owner, item.version, item.title, item.inventory, item.index);\n    }\n\n    function create(uint _version, string _title, uint _inventory) external returns (uint256) {\n\n        itemCounter++;\n\n        uint256 id = itemCounter;\n\n        require(exists(id) == false);\n        //make sure it doesn't exist. Might need refactored so that I can write tests to verify this condition\n\n        Item memory item = Item({\n            id : id,\n            owner : msg.sender,\n            version : 1,\n            title : _title,\n            inventory : _inventory,\n            index : itemIndex.length\n            });\n\n\n        //Put item in mapping\n        itemMapping[id] = item;\n\n\n        //Put id in index\n        itemIndex.push(id);\n\n\n        emit ItemEvent(\n            item.id,\n            item.owner,\n            item.version,\n            item.title,\n            item.inventory,\n            item.index,\n            \"NEW\"\n        );\n\n\n        return item.id;\n    }\n\n    function update(uint256 _id, uint _version, string _title, uint _inventory) external {\n\n        require(exists(_id));\n\n\n        if (itemMapping[_id].version != _version) {\n            itemMapping[_id].version = _version;\n        }\n\n        if (keccak256(bytes(itemMapping[_id].title)) != keccak256(bytes(_title))) {\n            itemMapping[_id].title = _title;\n        }\n\n        if (itemMapping[_id].inventory != _inventory) {\n            itemMapping[_id].inventory = _inventory;\n        }\n\n        emit ItemEvent(\n            itemMapping[_id].id,\n            itemMapping[_id].owner,\n            itemMapping[_id].version,\n            itemMapping[_id].title,\n            itemMapping[_id].inventory,\n            itemMapping[_id].index,\n            \"UPDATE\"\n        );\n\n    }\n\n\n    //https://medium.com/@robhitchens/solidity-crud-part-2-ed8d8b4f74ec\n    function remove(uint256 _id) external {\n\n        require(exists(_id));\n\n        //itemMapping[_id].active = false; //WHY DOESN'T THIS WORK\n\n        //Identifying the location of the item - in the itemIndex array - we're trying to remove.\n        //And then move the last item to its location to overwrite it.\n        //Then it's gone from the index. And since read uses the index it will be ignored when reading. Effectively deleted.\n\n\n        //Get the index of the one we're trying to delete\n        uint256 indexToDelete = itemMapping[_id].index;\n\n        //Get the last id in the list.\n        uint256 idToMove = itemIndex[itemIndex.length-1];\n\n        //Move the last item to the place we're trying to remove.\n        itemIndex[indexToDelete] = idToMove;\n\n        //Update the index of the moved one to tell it where it is in the index.\n        itemMapping[idToMove].index = indexToDelete;\n\n\n\n        emit ItemEvent(\n            itemMapping[_id].id,\n            itemMapping[_id].owner,\n            itemMapping[_id].version,\n            itemMapping[_id].title,\n            itemMapping[_id].inventory,\n            itemMapping[_id].index,\n            \"REMOVE\"\n        );\n\n    }\n\n    function exists(uint256 _id) private view returns (bool) {\n        if (itemIndex.length == 0) return false;\n\n        //Look up item by id and get the current index.\n        uint256 currentIndex = itemMapping[_id].index;\n\n        //Look in indexes and see see what's in the that spot\n        uint256 currentIdAtIndex = itemIndex[currentIndex];\n\n        //See if this id is still at the same place.\n        if (_id == currentIdAtIndex) {\n            return true;\n        }\n\n        return false;\n    }\n\n\n}\n\n\n\n\n//\n//\n//\n//library DaoUtils {\n//    function generateId(uint256[] existingIds) internal view returns (uint256){\n//        return existingIds.length + 1;\n//    }\n//}\n//\n//\n////For unit test\n//contract DaoUtilsProxy {\n//    function generateId(uint256[] existingIds) external view returns (uint256){\n//        return DaoUtils.generateId(existingIds);\n//    }\n//}\n\n\n\n\n",
  "sourcePath": "/home/ptoner/repos/solidity-vending-machine/contracts/Data.sol",
  "compiler": {
    "name": "solc",
    "version": "0.4.24+commit.e67f0147.Emscripten.clang"
  },
  "schemaVersion": "2.0.1",
  "updatedAt": "2018-09-24T21:10:39.060Z"
}