{
  "contractName": "ItemDaoBasic",
  "abi": [
    {
      "anonymous": false,
      "inputs": [
        {
          "indexed": false,
          "name": "owner",
          "type": "address"
        },
        {
          "indexed": false,
          "name": "version",
          "type": "uint256"
        },
        {
          "indexed": false,
          "name": "title",
          "type": "bytes32"
        },
        {
          "indexed": false,
          "name": "inventory",
          "type": "uint256"
        },
        {
          "indexed": false,
          "name": "active",
          "type": "bool"
        }
      ],
      "name": "LogNew",
      "type": "event"
    },
    {
      "constant": false,
      "inputs": [
        {
          "name": "id",
          "type": "uint256"
        }
      ],
      "name": "read",
      "outputs": [
        {
          "name": "owner",
          "type": "address"
        },
        {
          "name": "version",
          "type": "uint256"
        },
        {
          "name": "title",
          "type": "bytes32"
        },
        {
          "name": "inventory",
          "type": "uint256"
        },
        {
          "name": "active",
          "type": "bool"
        }
      ],
      "payable": false,
      "stateMutability": "nonpayable",
      "type": "function"
    },
    {
      "constant": false,
      "inputs": [
        {
          "name": "version",
          "type": "uint256"
        },
        {
          "name": "title",
          "type": "bytes32"
        },
        {
          "name": "inventory",
          "type": "uint256"
        },
        {
          "name": "active",
          "type": "bool"
        }
      ],
      "name": "create",
      "outputs": [
        {
          "name": "",
          "type": "uint256"
        }
      ],
      "payable": false,
      "stateMutability": "nonpayable",
      "type": "function"
    },
    {
      "constant": false,
      "inputs": [
        {
          "name": "id",
          "type": "uint256"
        },
        {
          "name": "owner",
          "type": "address"
        },
        {
          "name": "version",
          "type": "uint256"
        },
        {
          "name": "title",
          "type": "bytes32"
        },
        {
          "name": "inventory",
          "type": "uint256"
        },
        {
          "name": "active",
          "type": "bool"
        }
      ],
      "name": "update",
      "outputs": [],
      "payable": false,
      "stateMutability": "nonpayable",
      "type": "function"
    },
    {
      "constant": false,
      "inputs": [
        {
          "name": "id",
          "type": "uint256"
        }
      ],
      "name": "remove",
      "outputs": [],
      "payable": false,
      "stateMutability": "nonpayable",
      "type": "function"
    }
  ],
  "bytecode": "0x608060405234801561001057600080fd5b50610556806100206000396000f300608060405260043610610062576000357c0100000000000000000000000000000000000000000000000000000000900463ffffffff1680634cc822151461006757806371e744db14610094578063d1d04a2f1461010f578063ed2e5a9714610174575b600080fd5b34801561007357600080fd5b5061009260048036038101908080359060200190929190505050610209565b005b3480156100a057600080fd5b5061010d60048036038101908080359060200190929190803573ffffffffffffffffffffffffffffffffffffffff1690602001909291908035906020019092919080356000191690602001909291908035906020019092919080351515906020019092919050505061020c565b005b34801561011b57600080fd5b5061015e60048036038101908080359060200190929190803560001916906020019092919080359060200190929190803515159060200190929190505050610214565b6040518082815260200191505060405180910390f35b34801561018057600080fd5b5061019f6004803603810190808035906020019092919050505061041c565b604051808673ffffffffffffffffffffffffffffffffffffffff1673ffffffffffffffffffffffffffffffffffffffff1681526020018581526020018460001916600019168152602001838152602001821515151581526020019550505050505060405180910390f35b50565b505050505050565b60008061021f6104d8565b6102276104a7565b915060001515610236836104b6565b151514151561024457600080fd5b60c0604051908101604052808381526020013073ffffffffffffffffffffffffffffffffffffffff16815260200160018152602001876000191681526020018681526020018515158152509050806000808481526020019081526020016000206000820151816000015560208201518160010160006101000a81548173ffffffffffffffffffffffffffffffffffffffff021916908373ffffffffffffffffffffffffffffffffffffffff16021790555060408201518160020155606082015181600301906000191690556080820151816004015560a08201518160050160006101000a81548160ff02191690831515021790555090505060018290806001815401808255809150509060018203906000526020600020016000909192909190915055507f1ad408062e817ff462c0192f5265d523857b86b894e2dd149f4274993fb7aa3781602001518260400151836060015184608001518560a00151604051808673ffffffffffffffffffffffffffffffffffffffff1673ffffffffffffffffffffffffffffffffffffffff1681526020018581526020018460001916600019168152602001838152602001821515151581526020019550505050505060405180910390a1806000015192505050949350505050565b60008060008060008061042e876104b6565b151561043957600080fd5b60008088815260200190815260200160002090508060010160009054906101000a900473ffffffffffffffffffffffffffffffffffffffff168160020154826003015483600401548460050160009054906101000a900460ff16955095509550955095505091939590929450565b60006001808054905001905090565b60008060018054905014156104ce57600090506104d3565b600090505b919050565b60c06040519081016040528060008152602001600073ffffffffffffffffffffffffffffffffffffffff16815260200160008152602001600080191681526020016000815260200160001515815250905600a165627a7a723058203fec4221c6a87b40c9f1e4a32607eb7e67f1e5f2ed947526f9da98923040e1600029",
  "source": "pragma solidity ^0.4.24;\n\n\n\n\n\n\ninterface ItemDao {\n\n    function create(\n        uint version,\n        bytes32 title,\n        uint inventory,\n        bool active\n    ) external returns (uint256);\n\n    function read(uint256 id) external returns (\n        address owner,\n        uint version,\n        bytes32 title,\n        uint inventory,\n        bool active\n    );\n\n    function update(\n        uint256 id,\n        address owner,\n        uint version,\n        bytes32 title,\n        uint inventory,\n        bool active\n    ) external;\n\n\n    function remove(uint256 id) external;\n}\n\ncontract ItemDaoBasic is ItemDao {\n\n    struct Item {\n        uint256 id;\n        address owner;\n        uint version;\n        bytes32 title;\n        uint inventory;\n        bool active;\n    }\n\n\n    event LogNew (\n        address owner,\n        uint version,\n        bytes32 title,\n        uint inventory,\n        bool active\n    );\n\n    mapping(uint256 => Item) private itemMapping;\n    uint[] private itemIndex;\n\n    function read(uint256 id) external returns (\n        address owner,\n        uint version,\n        bytes32 title,\n        uint inventory,\n        bool active\n    ) {\n\n        require(exists(id));\n\n        Item storage item = itemMapping[id];\n\n        return (item.owner, item.version, item.title, item.inventory, item.active);\n    }\n\n    function create(\n        uint version,\n        bytes32 title,\n        uint inventory,\n        bool active\n    ) external returns (uint256) {\n\n        uint256 id = generateId();\n\n        require(exists(id) == false); //make sure it doesn't exist\n\n        Item memory item = Item({\n            id: id,\n            owner: this,\n            version: 1,\n            title: title,\n            inventory: inventory,\n            active: active\n        });\n\n\n\n        //Put item in mapping\n        itemMapping[id] = item;\n\n\n        //Put id in index\n        itemIndex.push(id);\n\n\n        emit LogNew(item.owner, item.version, item.title, item.inventory, item.active);\n\n\n        return item.id;\n    }\n\n    function update(\n        uint256 id,\n        address owner,\n        uint version,\n        bytes32 title,\n        uint inventory,\n        bool active\n    ) external {\n\n    }\n\n    function remove(uint256 id) external {\n\n    }\n\n    function exists(uint256 id) private returns (bool) {\n        if(itemIndex.length == 0) return false;\n\n        return false;\n        //return itemMapping[id].exists; //should return false if it doesn't exist\n    }\n\n    function generateId() private view returns (uint256){\n        return itemIndex.length + 1;\n    }\n\n}\n\n\n\n\n\n\n\n\n",
  "sourcePath": "/home/ptoner/repos/solidity-vending-machine/contracts/Data.sol",
  "compiler": {
    "name": "solc",
    "version": "0.4.24+commit.e67f0147.Emscripten.clang"
  },
  "schemaVersion": "2.0.1",
  "updatedAt": "2018-09-19T15:56:09.375Z"
}